:020000040000FA
:04000000DDEF05F03B
:1008000000444F53204C49425245524941204E41E9
:1008100043454E00312053504920504F5220534FF2
:1008200046545752450032204C49425245524941A4
:10083000205041524120004164696F732070696308
:1008400031386634353530004E6F6B696120353193
:1008500031300000000000000000005F00000007D1
:10086000000700147F147F14242A7F2A1223130800
:10087000646236495522500005030000001C2241E5
:10088000000041221C0014083E081408083E080815
:1008900000503000000808080808006060000020D0
:1008A000100804023E5149453E00427F400042612B
:1008B0005149462141454B311814127F10274545B7
:1008C00045393C4A494930017109050336494949CE
:1008D00036064949291E003636000000563600000B
:1008E00008142241001414141414004122140802A4
:1008F00001510906324979413E7E1111117E7F492D
:100900004949363E414141227F4141221C7F4949AC
:1009100049417F090909013E4149497A7F08080890
:100920007F00417F41002040413F017F0814224168
:100930007F404040407F020C027F7F0408107F3ED2
:100940004141413E7F090909063E4151215E7F092F
:10095000192946464949493101017F01013F40407B
:10096000403F1F2040201F3F4038403F6314081481
:100970006307087008076151494543007F41410002
:1009800002040810200041417F00040201020440DB
:1009900040404040000102040020545454787F48F5
:1009A0004444383844444420384444487F385454FC
:1009B0005418087E0901020C5252523E7F0804046A
:1009C0007800447D40002040443D007F10284400D2
:1009D00000417F40007C041804787C0804047838C7
:1009E000444444387C14141408081414187C7C08FB
:1009F0000404084854545420043F4440203C4040E0
:100A0000207C1C2040201C3C4030403C44281028C6
:100A1000440C5050503C4464544C4400083641004F
:100A200000007F0000004136080010080810087818
:100A300046414678720ED36E000E956E30EC06F08D
:100A4000BCEC05F00BEC06F0010E086E000E1EEC7F
:100A500006F0010E0D6E080E0E6EF6EC05F0020E9D
:100A6000086E000E1EEC06F0140E0D6E080E0E6ED3
:100A7000F6EC05F0030E086E000E1EEC06F0260ED6
:100A80000D6E080E0E6EF6EC05F0040E086E000EEC
:100A90001EEC06F0480E0D6E080E0E6EF6EC05F01C
:100AA0001F0E106E710E0F6E1E0EE82EFED70F2E4B
:100AB000FCD7102EFAD700D00BEC06F0020E086E11
:100AC000000E1EEC06F0370E0D6E080E0E6EF6ECE4
:100AD00005F0E6D7046E000E066E000E056E05C02A
:100AE00001F00450026E036A012A03D0D890023646
:100AF0000336012EFBD702AE02D08C8001D08C9041
:100B00008C94420EE82EFED700D08C84420EE82E44
:100B1000FED700D0054A062A06BEE1D7065005E1F9
:100B2000080E055CD8B01200DAD712000B6E8C8864
:100B30008C96000E0C6E0B50050D600E076EFF0EAE
:100B4000086E200E096E060E0A6E07500926085020
:100B50000A22F3500926F4500A220C500924D96EB7
:100B6000000E0A20DA6EDF506AEC05F00C2A040E43
:100B70000C64E1D78C8612008C9A020E096E040E6A
:100B8000086EBA0EE82EFED7082EFCD7092EFAD72B
:100B900000D08C8A210E28EC06F0130E28EC06F00B
:100BA000070E28EC06F0C00E28EC06F0200E28EC0C
:100BB00006F00C0E28EC06F01200540EF66E080E2D
:100BC000F76E000EF86E06EE20F011EEE0F0090070
:100BD000F5CFEEFFE550E150FAE1E250F8E1000E0A
:100BE000F86E080EF76E00011AEF05F00AD00DC07E
:100BF000F6FF0EC0F7FF0800F55096EC05F00D4A21
:100C00000E2A0DC0F6FF0EC0F7FF0800F5500009D0
:100C1000D8B41200ECD78C968C88000E076E000EAC
:100C2000086E000E6AEC05F0082A530E0864F9D726
:100C3000072A050E0764F3D78C861200096E095047
:100C4000800928EC06F00850400928EC06F0120054
:100C5000076E8C988C9607506AEC05F08C86120013
:0A0C600095909582959495961200E8
:020000040020DA
:08000000FFFFFFFFFFFFFFFF00
:020000040030CA
:0E0000000008181EFF8081FF0FC00FE00F40A8
:00000001FF
